{
  "contractName": "SaleContract",
  "abi": [
    {
      "constant": false,
      "inputs": [
        {
          "name": "_contractID",
          "type": "uint256"
        }
      ],
      "name": "initiateSale",
      "outputs": [],
      "payable": false,
      "stateMutability": "nonpayable",
      "type": "function"
    },
    {
      "constant": false,
      "inputs": [
        {
          "name": "_contractID",
          "type": "uint256"
        },
        {
          "name": "_quantity",
          "type": "uint256"
        }
      ],
      "name": "quantify",
      "outputs": [],
      "payable": false,
      "stateMutability": "nonpayable",
      "type": "function"
    },
    {
      "constant": false,
      "inputs": [
        {
          "name": "_contractID",
          "type": "uint256"
        }
      ],
      "name": "sign",
      "outputs": [],
      "payable": false,
      "stateMutability": "nonpayable",
      "type": "function"
    },
    {
      "constant": false,
      "inputs": [
        {
          "name": "_contractID",
          "type": "uint256"
        },
        {
          "name": "_comment",
          "type": "string"
        }
      ],
      "name": "commentDecline",
      "outputs": [],
      "payable": false,
      "stateMutability": "nonpayable",
      "type": "function"
    },
    {
      "constant": false,
      "inputs": [
        {
          "name": "_contractID",
          "type": "uint256"
        },
        {
          "name": "_unitPrice",
          "type": "uint256"
        },
        {
          "name": "_deliveryDate",
          "type": "string"
        },
        {
          "name": "_returnPolicy",
          "type": "string"
        },
        {
          "name": "_deposit",
          "type": "uint256"
        },
        {
          "name": "_freight",
          "type": "string"
        },
        {
          "name": "_insurance",
          "type": "string"
        }
      ],
      "name": "propose",
      "outputs": [],
      "payable": false,
      "stateMutability": "nonpayable",
      "type": "function"
    },
    {
      "constant": true,
      "inputs": [
        {
          "name": "_contractID",
          "type": "uint256"
        }
      ],
      "name": "getContractValues",
      "outputs": [
        {
          "name": "quantity",
          "type": "uint256"
        },
        {
          "name": "unitPrice",
          "type": "uint256"
        },
        {
          "name": "deliveryDate",
          "type": "string"
        },
        {
          "name": "returnPolicy",
          "type": "string"
        },
        {
          "name": "deposit",
          "type": "uint256"
        },
        {
          "name": "freight",
          "type": "string"
        },
        {
          "name": "insurance",
          "type": "string"
        },
        {
          "name": "comment",
          "type": "string"
        }
      ],
      "payable": false,
      "stateMutability": "view",
      "type": "function"
    },
    {
      "constant": false,
      "inputs": [
        {
          "name": "_contractID",
          "type": "uint256"
        }
      ],
      "name": "withdrawOffer",
      "outputs": [],
      "payable": false,
      "stateMutability": "nonpayable",
      "type": "function"
    },
    {
      "constant": true,
      "inputs": [
        {
          "name": "_contractID",
          "type": "uint256"
        }
      ],
      "name": "getContractParticipants",
      "outputs": [
        {
          "name": "buyerAddress",
          "type": "address"
        },
        {
          "name": "sellerAddress",
          "type": "address"
        }
      ],
      "payable": false,
      "stateMutability": "view",
      "type": "function"
    },
    {
      "constant": true,
      "inputs": [
        {
          "name": "_contractID",
          "type": "uint256"
        }
      ],
      "name": "exportContract",
      "outputs": [
        {
          "name": "exportedContract",
          "type": "string"
        }
      ],
      "payable": false,
      "stateMutability": "view",
      "type": "function"
    },
    {
      "constant": true,
      "inputs": [],
      "name": "getContracts",
      "outputs": [
        {
          "name": "_contractID",
          "type": "uint256[]"
        }
      ],
      "payable": false,
      "stateMutability": "view",
      "type": "function"
    },
    {
      "constant": false,
      "inputs": [
        {
          "name": "_sellerAddres",
          "type": "address"
        }
      ],
      "name": "createContract",
      "outputs": [
        {
          "name": "_contractID",
          "type": "uint256"
        }
      ],
      "payable": false,
      "stateMutability": "nonpayable",
      "type": "function"
    },
    {
      "inputs": [],
      "payable": false,
      "stateMutability": "nonpayable",
      "type": "constructor"
    },
    {
      "anonymous": false,
      "inputs": [
        {
          "indexed": false,
          "name": "_contractId",
          "type": "uint256"
        }
      ],
      "name": "OfferRequested",
      "type": "event"
    },
    {
      "anonymous": false,
      "inputs": [
        {
          "indexed": false,
          "name": "_contractId",
          "type": "uint256"
        }
      ],
      "name": "OfferArrived",
      "type": "event"
    },
    {
      "anonymous": false,
      "inputs": [
        {
          "indexed": false,
          "name": "_contractId",
          "type": "uint256"
        }
      ],
      "name": "ProposalSigned",
      "type": "event"
    },
    {
      "anonymous": false,
      "inputs": [
        {
          "indexed": false,
          "name": "_contractId",
          "type": "uint256"
        }
      ],
      "name": "ProposalDeclined",
      "type": "event"
    },
    {
      "anonymous": false,
      "inputs": [
        {
          "indexed": false,
          "name": "_contractId",
          "type": "uint256"
        }
      ],
      "name": "SaleInitiated",
      "type": "event"
    },
    {
      "anonymous": false,
      "inputs": [
        {
          "indexed": false,
          "name": "_contractId",
          "type": "uint256"
        }
      ],
      "name": "OfferWithdrawed",
      "type": "event"
    }
  ],
  "bytecode": "0x606060405234156200001057600080fd5b6101e0604051908101604052806101bc815260200162002d2e6101bc913960009080519060200190620000459291906200004c565b50620000fb565b828054600181600116156101000203166002900490600052602060002090601f016020900481019282601f106200008f57805160ff1916838001178555620000c0565b82800160010185558215620000c0579182015b82811115620000bf578251825591602001919060010190620000a2565b5b509050620000cf9190620000d3565b5090565b620000f891905b80821115620000f4576000816000905550600101620000da565b5090565b90565b612c23806200010b6000396000f3006060604052600436106100af576000357c0100000000000000000000000000000000000000000000000000000000900463ffffffff1680631179651c146100b45780631aa307b0146100d75780632fb1b25f1461010357806358df7eff146101265780637f5a29c41461015d578063856b126f146101e25780638610f045146104435780639c2f298d14610466578063af7ea852146104fc578063c3a2a93a14610598578063e2d73ccd14610602575b600080fd5b34156100bf57600080fd5b6100d5600480803590602001909190505061064f565b005b34156100e257600080fd5b61010160048080359060200190919080359060200190919050506107a3565b005b341561010e57600080fd5b6101246004808035906020019091905050610901565b005b341561013157600080fd5b61015b60048080359060200190919080359060200190820180359060200191909192905050610a55565b005b341561016857600080fd5b6101e060048080359060200190919080359060200190919080359060200190820180359060200191909192908035906020019082018035906020019190919290803590602001909190803590602001908201803590602001919091929080359060200190820180359060200191909192905050610bbf565b005b34156101ed57600080fd5b6102036004808035906020019091905050610d7f565b60405180898152602001888152602001806020018060200187815260200180602001806020018060200186810386528c818151815260200191508051906020019080838360005b8381101561026557808201518184015260208101905061024a565b50505050905090810190601f1680156102925780820380516001836020036101000a031916815260200191505b5086810385528b818151815260200191508051906020019080838360005b838110156102cb5780820151818401526020810190506102b0565b50505050905090810190601f1680156102f85780820380516001836020036101000a031916815260200191505b50868103845289818151815260200191508051906020019080838360005b83811015610331578082015181840152602081019050610316565b50505050905090810190601f16801561035e5780820380516001836020036101000a031916815260200191505b50868103835288818151815260200191508051906020019080838360005b8381101561039757808201518184015260208101905061037c565b50505050905090810190601f1680156103c45780820380516001836020036101000a031916815260200191505b50868103825287818151815260200191508051906020019080838360005b838110156103fd5780820151818401526020810190506103e2565b50505050905090810190601f16801561042a5780820380516001836020036101000a031916815260200191505b509d505050505050505050505050505060405180910390f35b341561044e57600080fd5b61046460048080359060200190919050506111c7565b005b341561047157600080fd5b61048760048080359060200190919050506112d3565b604051808373ffffffffffffffffffffffffffffffffffffffff1673ffffffffffffffffffffffffffffffffffffffff1681526020018273ffffffffffffffffffffffffffffffffffffffff1673ffffffffffffffffffffffffffffffffffffffff1681526020019250505060405180910390f35b341561050757600080fd5b61051d6004808035906020019091905050611361565b6040518080602001828103825283818151815260200191508051906020019080838360005b8381101561055d578082015181840152602081019050610542565b50505050905090810190601f16801561058a5780820380516001836020036101000a031916815260200191505b509250505060405180910390f35b34156105a357600080fd5b6105ab611d5e565b6040518080602001828103825283818151815260200191508051906020019060200280838360005b838110156105ee5780820151818401526020810190506105d3565b505050509050019250505060405180910390f35b341561060d57600080fd5b610639600480803573ffffffffffffffffffffffffffffffffffffffff16906020019091905050611df9565b6040518082815260200191505060405180910390f35b6000813373ffffffffffffffffffffffffffffffffffffffff1660018281548110151561067857fe5b90600052602060002090600a020160000160009054906101000a900473ffffffffffffffffffffffffffffffffffffffff1673ffffffffffffffffffffffffffffffffffffffff161415156106cc57600080fd5b8260038060058111156106db57fe5b6001838154811015156106ea57fe5b90600052602060002090600a020160010160149054906101000a900460ff16600581111561071457fe5b14151561072057600080fd5b60018581548110151561072f57fe5b90600052602060002090600a0201935060058460010160146101000a81548160ff0219169083600581111561076057fe5b02179055507fe30f32b2cb1ed450c416ac4c1e50ab2d46a04e8e5d9f6ee90746a7247a42c04b856040518082815260200191505060405180910390a15050505050565b6000823373ffffffffffffffffffffffffffffffffffffffff166001828154811015156107cc57fe5b90600052602060002090600a020160000160009054906101000a900473ffffffffffffffffffffffffffffffffffffffff1673ffffffffffffffffffffffffffffffffffffffff1614151561082057600080fd5b83600080600581111561082f57fe5b60018381548110151561083e57fe5b90600052602060002090600a020160010160149054906101000a900460ff16600581111561086857fe5b14151561087457600080fd5b60018681548110151561088357fe5b90600052602060002090600a0201935084846002018190555060018460010160146101000a81548160ff021916908360058111156108bd57fe5b02179055507f76b01b8f2f58e7ab13ddc8573a5ac7d11f73ffaea7f4717333968ca745d6c422866040518082815260200191505060405180910390a1505050505050565b6000813373ffffffffffffffffffffffffffffffffffffffff1660018281548110151561092a57fe5b90600052602060002090600a020160000160009054906101000a900473ffffffffffffffffffffffffffffffffffffffff1673ffffffffffffffffffffffffffffffffffffffff1614151561097e57600080fd5b82600280600581111561098d57fe5b60018381548110151561099c57fe5b90600052602060002090600a020160010160149054906101000a900460ff1660058111156109c657fe5b1415156109d257600080fd5b6001858154811015156109e157fe5b90600052602060002090600a0201935060038460010160146101000a81548160ff02191690836005811115610a1257fe5b02179055507f2fa1288e649b358550efaaac334f3f084a183d541a084329b9fcf20f6a49e207856040518082815260200191505060405180910390a15050505050565b6000833373ffffffffffffffffffffffffffffffffffffffff16600182815481101515610a7e57fe5b90600052602060002090600a020160000160009054906101000a900473ffffffffffffffffffffffffffffffffffffffff1673ffffffffffffffffffffffffffffffffffffffff16141515610ad257600080fd5b846002806005811115610ae157fe5b600183815481101515610af057fe5b90600052602060002090600a020160010160149054906101000a900460ff166005811115610b1a57fe5b141515610b2657600080fd5b600187815481101515610b3557fe5b90600052602060002090600a020193508585856009019190610b589291906128ed565b5060048460010160146101000a81548160ff02191690836005811115610b7a57fe5b02179055507f4cf2797951877f41b38931a68643f9249273f32fd396532213aa4f1222c9d16b876040518082815260200191505060405180910390a150505050505050565b60008b3373ffffffffffffffffffffffffffffffffffffffff16600182815481101515610be857fe5b90600052602060002090600a020160000160009054906101000a900473ffffffffffffffffffffffffffffffffffffffff1673ffffffffffffffffffffffffffffffffffffffff16141515610c3c57600080fd5b8c6001806005811115610c4b57fe5b600183815481101515610c5a57fe5b90600052602060002090600a020160010160149054906101000a900460ff166005811115610c8457fe5b141515610c9057600080fd5b60018f815481101515610c9f57fe5b90600052602060002090600a020193508d84600301819055508c8c856004019190610ccb9291906128ed565b508a8a856005019190610cdf9291906128ed565b508884600601819055508787856007019190610cfc9291906128ed565b508585856008019190610d109291906128ed565b5060028460010160146101000a81548160ff02191690836005811115610d3257fe5b02179055507f18254c8e1f370d9c1a6776143cfd14fa5bd569f527577163651eafe2f9d275a98f6040518082815260200191505060405180910390a1505050505050505050505050505050565b600080610d8a61296d565b610d9261296d565b6000610d9c61296d565b610da461296d565b610dac61296d565b600189815481101515610dbb57fe5b90600052602060002090600a0201600201549750600189815481101515610dde57fe5b90600052602060002090600a0201600301549650600189815481101515610e0157fe5b90600052602060002090600a02016004018054600181600116156101000203166002900480601f016020809104026020016040519081016040528092919081815260200182805460018160011615610100020316600290048015610ea65780601f10610e7b57610100808354040283529160200191610ea6565b820191906000526020600020905b815481529060010190602001808311610e8957829003601f168201915b50505050509550600189815481101515610ebc57fe5b90600052602060002090600a02016005018054600181600116156101000203166002900480601f016020809104026020016040519081016040528092919081815260200182805460018160011615610100020316600290048015610f615780601f10610f3657610100808354040283529160200191610f61565b820191906000526020600020905b815481529060010190602001808311610f4457829003601f168201915b50505050509450600189815481101515610f7757fe5b90600052602060002090600a0201600601549350600189815481101515610f9a57fe5b90600052602060002090600a02016007018054600181600116156101000203166002900480601f01602080910402602001604051908101604052809291908181526020018280546001816001161561010002031660029004801561103f5780601f106110145761010080835404028352916020019161103f565b820191906000526020600020905b81548152906001019060200180831161102257829003601f168201915b5050505050925060018981548110151561105557fe5b90600052602060002090600a02016008018054600181600116156101000203166002900480601f0160208091040260200160405190810160405280929190818152602001828054600181600116156101000203166002900480156110fa5780601f106110cf576101008083540402835291602001916110fa565b820191906000526020600020905b8154815290600101906020018083116110dd57829003601f168201915b5050505050915060018981548110151561111057fe5b90600052602060002090600a02016009018054600181600116156101000203166002900480601f0160208091040260200160405190810160405280929190818152602001828054600181600116156101000203166002900480156111b55780601f1061118a576101008083540402835291602001916111b5565b820191906000526020600020905b81548152906001019060200180831161119857829003601f168201915b50505050509050919395975091939597565b803373ffffffffffffffffffffffffffffffffffffffff166001828154811015156111ee57fe5b90600052602060002090600a020160000160009054906101000a900473ffffffffffffffffffffffffffffffffffffffff1673ffffffffffffffffffffffffffffffffffffffff1614151561124257600080fd5b81600480600581111561125157fe5b60018381548110151561126057fe5b90600052602060002090600a020160010160149054906101000a900460ff16600581111561128a57fe5b14151561129657600080fd5b7f0e18f519eb7b079af32bd7c33c6e13c13964a4d36e687d0c33d15bb936cdbe40846040518082815260200191505060405180910390a150505050565b6000806001838154811015156112e557fe5b90600052602060002090600a020160000160009054906101000a900473ffffffffffffffffffffffffffffffffffffffff16915060018381548110151561132857fe5b90600052602060002090600a020160010160009054906101000a900473ffffffffffffffffffffffffffffffffffffffff169050915091565b61136961296d565b611371612981565b611379612981565b611381612981565b61142460008054600181600116156101000203166002900480601f01602080910402602001604051908101604052809291908181526020018280546001816001161561010002031660029004801561141a5780601f106113ef5761010080835404028352916020019161141a565b820191906000526020600020905b8154815290600101906020018083116113fd57829003601f168201915b5050505050612146565b92506114786114676040805190810160405280600f81526020017f3c73656c6c6572416464726573733e0000000000000000000000000000000000815250612146565b83856121749092919063ffffffff16565b5061149461148f838361221290919063ffffffff16565b612146565b90506115016114fc6114ed6114e86001898154811015156114b157fe5b90600052602060002090600a020160010160009054906101000a900473ffffffffffffffffffffffffffffffffffffffff16612290565b612146565b8361221290919063ffffffff16565b612146565b90506115556115446040805190810160405280600e81526020017f3c6275796572416464726573733e000000000000000000000000000000000000815250612146565b83856121749092919063ffffffff16565b5061157161156c838361221290919063ffffffff16565b612146565b90506115de6115d96115ca6115c560018981548110151561158e57fe5b90600052602060002090600a020160000160009054906101000a900473ffffffffffffffffffffffffffffffffffffffff16612290565b612146565b8361221290919063ffffffff16565b612146565b90506116326116216040805190810160405280600a81526020017f3c7175616e746974793e00000000000000000000000000000000000000000000815250612146565b83856121749092919063ffffffff16565b5061164e611649838361221290919063ffffffff16565b612146565b905061169b61169661168761168260018981548110151561166b57fe5b90600052602060002090600a0201600201546124a1565b612146565b8361221290919063ffffffff16565b612146565b90506116ef6116de6040805190810160405280600b81526020017f3c756e697450726963653e000000000000000000000000000000000000000000815250612146565b83856121749092919063ffffffff16565b5061170b611706838361221290919063ffffffff16565b612146565b905061175861175361174461173f60018981548110151561172857fe5b90600052602060002090600a0201600301546124a1565b612146565b8361221290919063ffffffff16565b612146565b90506117ac61179b6040805190810160405280600981526020017f3c6465706f7369743e0000000000000000000000000000000000000000000000815250612146565b83856121749092919063ffffffff16565b506117c86117c3838361221290919063ffffffff16565b612146565b90506118156118106118016117fc6001898154811015156117e557fe5b90600052602060002090600a0201600601546124a1565b612146565b8361221290919063ffffffff16565b612146565b90506118696118586040805190810160405280600981526020017f3c667265696768743e0000000000000000000000000000000000000000000000815250612146565b83856121749092919063ffffffff16565b50611885611880838361221290919063ffffffff16565b612146565b905061196261195d61194e60018881548110151561189f57fe5b90600052602060002090600a02016007018054600181600116156101000203166002900480601f0160208091040260200160405190810160405280929190818152602001828054600181600116156101000203166002900480156119445780601f1061191957610100808354040283529160200191611944565b820191906000526020600020905b81548152906001019060200180831161192757829003601f168201915b5050505050612146565b8361221290919063ffffffff16565b612146565b90506119b66119a56040805190810160405280600e81526020017f3c64656c6976657279446174653e000000000000000000000000000000000000815250612146565b83856121749092919063ffffffff16565b506119d26119cd838361221290919063ffffffff16565b612146565b9050611aaf611aaa611a9b6001888154811015156119ec57fe5b90600052602060002090600a02016004018054600181600116156101000203166002900480601f016020809104026020016040519081016040528092919081815260200182805460018160011615610100020316600290048015611a915780601f10611a6657610100808354040283529160200191611a91565b820191906000526020600020905b815481529060010190602001808311611a7457829003601f168201915b5050505050612146565b8361221290919063ffffffff16565b612146565b9050611b03611af26040805190810160405280600e81526020017f3c72657475726e506f6c6963793e000000000000000000000000000000000000815250612146565b83856121749092919063ffffffff16565b50611b1f611b1a838361221290919063ffffffff16565b612146565b9050611bfc611bf7611be8600188815481101515611b3957fe5b90600052602060002090600a02016005018054600181600116156101000203166002900480601f016020809104026020016040519081016040528092919081815260200182805460018160011615610100020316600290048015611bde5780601f10611bb357610100808354040283529160200191611bde565b820191906000526020600020905b815481529060010190602001808311611bc157829003601f168201915b5050505050612146565b8361221290919063ffffffff16565b612146565b9050611c50611c3f6040805190810160405280600b81526020017f3c696e737572616e63653e000000000000000000000000000000000000000000815250612146565b83856121749092919063ffffffff16565b50611c6c611c67838361221290919063ffffffff16565b612146565b9050611d49611d44611d35600188815481101515611c8657fe5b90600052602060002090600a02016008018054600181600116156101000203166002900480601f016020809104026020016040519081016040528092919081815260200182805460018160011615610100020316600290048015611d2b5780601f10611d0057610100808354040283529160200191611d2b565b820191906000526020600020905b815481529060010190602001808311611d0e57829003601f168201915b5050505050612146565b8361221290919063ffffffff16565b612146565b9050611d548161266e565b9350505050919050565b611d6661299b565b600260003373ffffffffffffffffffffffffffffffffffffffff1673ffffffffffffffffffffffffffffffffffffffff168152602001908152602001600020805480602002602001604051908101604052809291908181526020018280548015611def57602002820191906000526020600020905b815481526020019060010190808311611ddb575b5050505050905090565b600060018054806001018281611e0f91906129af565b91600052602060002090600a02016000610160604051908101604052803373ffffffffffffffffffffffffffffffffffffffff1681526020018673ffffffffffffffffffffffffffffffffffffffff16815260200160006005811115611e7157fe5b8152602001600081526020016000815260200160206040519081016040528060008152508152602001602060405190810160405280600081525081526020016000815260200160206040519081016040528060008152508152602001602060405190810160405280600081525081526020016020604051908101604052806000815250815250909190915060008201518160000160006101000a81548173ffffffffffffffffffffffffffffffffffffffff021916908373ffffffffffffffffffffffffffffffffffffffff16021790555060208201518160010160006101000a81548173ffffffffffffffffffffffffffffffffffffffff021916908373ffffffffffffffffffffffffffffffffffffffff16021790555060408201518160010160146101000a81548160ff02191690836005811115611fae57fe5b0217905550606082015181600201556080820151816003015560a0820151816004019080519060200190611fe39291906129e1565b5060c08201518160050190805190602001906120009291906129e1565b5060e082015181600601556101008201518160070190805190602001906120289291906129e1565b506101208201518160080190805190602001906120469291906129e1565b506101408201518160090190805190602001906120649291906129e1565b5050505060018080549050039050600260003373ffffffffffffffffffffffffffffffffffffffff1673ffffffffffffffffffffffffffffffffffffffff16815260200190815260200160002080548060010182816120c39190612a61565b916000526020600020900160008390919091505550600260008373ffffffffffffffffffffffffffffffffffffffff1673ffffffffffffffffffffffffffffffffffffffff16815260200190815260200160002080548060010182816121299190612a61565b916000526020600020900160008390919091505550809050919050565b61214e612981565b600060208301905060408051908101604052808451815260200182815250915050919050565b61217c612981565b600061219a85600001518660200151866000015187602001516126cc565b905084602001518360200181815250508460200151810383600001818152505084600001518560200151018114156121dc576000856000018181525050612207565b8360000151836000015101856000018181510391508181525050836000015181018560200181815250505b829150509392505050565b61221a61296d565b61222261296d565b6000836000015185600001510160405180591061223c5750595b9080825280601f01601f1916602001820160405250915060208201905061226c81866020015187600001516127b2565b61228585600001518201856020015186600001516127b2565b819250505092915050565b61229861296d565b6122a0612a8d565b60008060008060286040518059106122b55750595b9080825280601f01601f19166020018201604052509450600093505b6014841015612494578360130360080260020a8773ffffffffffffffffffffffffffffffffffffffff1681151561230457fe5b047f01000000000000000000000000000000000000000000000000000000000000000292506010837f0100000000000000000000000000000000000000000000000000000000000000900460ff1681151561235b57fe5b047f0100000000000000000000000000000000000000000000000000000000000000029150817f01000000000000000000000000000000000000000000000000000000000000009004601002837f01000000000000000000000000000000000000000000000000000000000000009004037f01000000000000000000000000000000000000000000000000000000000000000290506123f9826127fd565b858560020281518110151561240a57fe5b9060200101907effffffffffffffffffffffffffffffffffffffffffffffffffffffffffffff1916908160001a905350612443816127fd565b856001866002020181518110151561245757fe5b9060200101907effffffffffffffffffffffffffffffffffffffffffffffffffffffffffffff1916908160001a90535083806001019450506122d1565b8495505050505050919050565b6124a961296d565b60006124b3612a8d565b6000806124be612a8d565b600060649550856040518059106124d25750595b9080825280601f01601f19166020018201604052509450600093505b60008814151561258557600a8881151561250457fe5b069250600a8881151561251357fe5b049750826030017f010000000000000000000000000000000000000000000000000000000000000002858580600101965081518110151561255057fe5b9060200101907effffffffffffffffffffffffffffffffffffffffffffffffffffffffffffff1916908160001a9053506124ee565b836040518059106125935750595b9080825280601f01601f19166020018201604052509150600090505b8381101561266057848160018603038151811015156125ca57fe5b9060200101517f010000000000000000000000000000000000000000000000000000000000000090047f010000000000000000000000000000000000000000000000000000000000000002828281518110151561262357fe5b9060200101907effffffffffffffffffffffffffffffffffffffffffffffffffffffffffffff1916908160001a90535080806001019150506125af565b819650505050505050919050565b61267661296d565b61267e61296d565b600083600001516040518059106126925750595b9080825280601f01601f191660200182016040525091506020820190506126c281856020015186600001516127b2565b8192505050919050565b60008060008060008060008060008b97508c8b11151561279c5760208b1115156127565760018b60200360080260020a03196001029550858a511694508a8d8d010393508588511692505b8460001916836000191614151561274e57838810151561273b578c8c0198506127a2565b8780600101985050858851169250612717565b8798506127a2565b8a8a209150600096505b8a8d038711151561279b578a88209050806000191682600019161415612788578798506127a2565b6001880197508680600101975050612760565b5b8c8c0198505b5050505050505050949350505050565b60005b6020821015156127da57825184526020840193506020830192506020820391506127b5565b6001826020036101000a0390508019835116818551168181178652505050505050565b6000600a7f010000000000000000000000000000000000000000000000000000000000000002827effffffffffffffffffffffffffffffffffffffffffffffffffffffffffffff1916101561289c576030827f01000000000000000000000000000000000000000000000000000000000000009004017f01000000000000000000000000000000000000000000000000000000000000000290506128e8565b6057827f01000000000000000000000000000000000000000000000000000000000000009004017f01000000000000000000000000000000000000000000000000000000000000000290505b919050565b828054600181600116156101000203166002900490600052602060002090601f016020900481019282601f1061292e57803560ff191683800117855561295c565b8280016001018555821561295c579182015b8281111561295b578235825591602001919060010190612940565b5b5090506129699190612aa1565b5090565b602060405190810160405280600081525090565b604080519081016040528060008152602001600081525090565b602060405190810160405280600081525090565b8154818355818115116129dc57600a0281600a0283600052602060002091820191016129db9190612ac6565b5b505050565b828054600181600116156101000203166002900490600052602060002090601f016020900481019282601f10612a2257805160ff1916838001178555612a50565b82800160010185558215612a50579182015b82811115612a4f578251825591602001919060010190612a34565b5b509050612a5d9190612aa1565b5090565b815481835581811511612a8857818360005260206000209182019101612a879190612aa1565b5b505050565b602060405190810160405280600081525090565b612ac391905b80821115612abf576000816000905550600101612aa7565b5090565b90565b612bac91905b80821115612ba857600080820160006101000a81549073ffffffffffffffffffffffffffffffffffffffff02191690556001820160006101000a81549073ffffffffffffffffffffffffffffffffffffffff02191690556001820160146101000a81549060ff021916905560028201600090556003820160009055600482016000612b579190612baf565b600582016000612b679190612baf565b6006820160009055600782016000612b7f9190612baf565b600882016000612b8f9190612baf565b600982016000612b9f9190612baf565b50600a01612acc565b5090565b90565b50805460018160011615610100020316600290046000825580601f10612bd55750612bf4565b601f016020900490600052602060002090810190612bf39190612aa1565b5b505600a165627a7a72305820a61fd6c97f7e553994dcb9da1fb3b50c336323a030e3c5943142a21e5622dc86002953616c65732041677265656d656e74206265747765656e203c73656c6c6572416464726573733e202861732073656c6c65722920616e64203c6275796572416464726573733e20286173206275796572292e2042757965722061677265657320746f207075726368617365203c7175616e746974793e20706965636573206f662065717569706d656e742061742061286e29203c756e697450726963653e2070726963652070657220756e697420776974682061207072652d70616964206465706f736974206f66203c6465706f7369743e2e2053656c6c65722061677265657320746f207368697020676f6f647320766961203c667265696768743e206279207468652074696d65203c64656c6976657279446174653e2e2049662074686520666f6c6c6f77696e672073746174656d656e7420686f6c64732c207468652062757965722068617320746865206f70706f7274756e69747920746f20676574206120726566756e643a203c72657475726e506f6c6963793e2e20466f7220746865207175616c697479206f6620746865206974656d20616e20696e737572616e636520697320696e20706c6163653a203c696e737572616e63653e",
  "source": "pragma solidity ^0.4.18;\n\n\nimport \"./libs/strings.sol\";\n\n\n/// Digital sale e-contract manager\ncontract SaleContract {\n    using strings for *;\n\n    /* E-contract text template with the tempate variables packed inside as <variable_name> */\n    string contractTemplate;\n\n    // Container for digital contrats\n    DigitalContract[] contracts;\n\n    // Map to find related contracts\n    mapping (address => uint[]) participatedContracts;\n\n    /// Fulfilment state of the digital sale contract\n    enum State {Empty, Request, Proposal, Agreement, Fail, Initiated}\n\n    // Variables for individual e-contract instances\n    struct DigitalContract {\n    /* Required fields */\n    address buyerAddress;\n    address sellerAddress;\n    State state;\n\n    /* Request data */\n    uint quantity;\n\n    /* Proposal data */\n    uint unitPrice;\n    string deliveryDate;\n    string returnPolicy;\n    uint deposit;\n    string freight;\n    string insurance;\n\n    /* Fail data */\n    string comment;\n    }\n\n    /// Function modifier to ensure state transitions\n    modifier onlyInState (uint _contractID, State _state) {\n        require(contracts[_contractID].state == _state);\n        _;\n    }\n\n    /// Function modifier to ensure buyer is calling\n    modifier onlyBuyer (uint _contractID){\n        require(contracts[_contractID].buyerAddress == msg.sender);\n        _;\n    }\n\n    /// Function modifier to ensure seller is calling\n    modifier onlySeller (uint _contractID){\n        require(contracts[_contractID].buyerAddress == msg.sender);\n        _;\n    }\n\n    /* Constructor */\n    function SaleContract() public {\n        // Mock e-contract template\n        contractTemplate = \"Sales Agreement between <sellerAddress> (as seller) and <buyerAddress> (as buyer). Buyer agrees to purchase <quantity> pieces of equipment at a(n) <unitPrice> price per unit with a pre-paid deposit of <deposit>. Seller agrees to ship goods via <freight> by the time <deliveryDate>. If the following statement holds, the buyer has the opportunity to get a refund: <returnPolicy>. For the quality of the item an insurance is in place: <insurance>\";\n    }\n\n    /* Create sale e-contract instance with the transaction sender as buyer */\n    function createContract(address _sellerAddres) external returns (uint _contractID){\n\n        // Initialize digital contract\n        contracts.push(DigitalContract(msg.sender, _sellerAddres, State.Empty, 0, 0, \"\", \"\", 0, \"\", \"\", \"\"));\n        // Struct values in respective order\n\n        // Obtain ID as current max ID\n        _contractID = contracts.length - 1;\n\n        // Create participant mappings\n        participatedContracts[msg.sender].push(_contractID);\n        participatedContracts[_sellerAddres].push(_contractID);\n\n        // Return ID\n        return _contractID;\n    }\n\n    // Get transaction sender related e-contracts\n    function getContracts() external view returns (uint[] _contractID){\n        return participatedContracts[msg.sender];\n    }\n\n    /* Get participant for a given e-contract instance */\n    function getContractParticipants(uint _contractID) external view returns (\n    address buyerAddress,\n    address sellerAddress\n    ) {\n        buyerAddress = contracts[_contractID].buyerAddress;\n        sellerAddress = contracts[_contractID].sellerAddress;\n    }\n\n    /* Get e-contract details for a given contract ID */\n    function getContractValues(uint _contractID) external view returns (\n    uint quantity,\n    uint unitPrice,\n    string deliveryDate,\n    string returnPolicy,\n    uint deposit,\n    string freight,\n    string insurance,\n    string comment\n    ) {\n        quantity = contracts[_contractID].quantity;\n        unitPrice = contracts[_contractID].unitPrice;\n        deliveryDate = contracts[_contractID].deliveryDate;\n        returnPolicy = contracts[_contractID].returnPolicy;\n        deposit = contracts[_contractID].deposit;\n        freight = contracts[_contractID].freight;\n        insurance = contracts[_contractID].insurance;\n        comment = contracts[_contractID].comment;\n    }\n\n    /* Export e-contract text with the enfilled template variables for a given e-contract instance */\n    function exportContract(uint _contractID) external view returns (string exportedContract) {\n        strings.slice memory template = contractTemplate.toSlice();\n        strings.slice memory part;\n        strings.slice memory export;\n\n        template.split(\"<sellerAddress>\".toSlice(), part);\n        export = export.concat(part).toSlice();\n        export = export.concat(toAsciiString(contracts[_contractID].sellerAddress).toSlice()).toSlice();\n\n        template.split(\"<buyerAddress>\".toSlice(), part);\n        export = export.concat(part).toSlice();\n        export = export.concat(toAsciiString(contracts[_contractID].buyerAddress).toSlice()).toSlice();\n\n        template.split(\"<quantity>\".toSlice(), part);\n        export = export.concat(part).toSlice();\n        export = export.concat(uintToString(contracts[_contractID].quantity).toSlice()).toSlice();\n\n        template.split(\"<unitPrice>\".toSlice(), part);\n        export = export.concat(part).toSlice();\n        export = export.concat(uintToString(contracts[_contractID].unitPrice).toSlice()).toSlice();\n\n        template.split(\"<deposit>\".toSlice(), part);\n        export = export.concat(part).toSlice();\n        export = export.concat(uintToString(contracts[_contractID].deposit).toSlice()).toSlice();\n\n        template.split(\"<freight>\".toSlice(), part);\n        export = export.concat(part).toSlice();\n        export = export.concat(contracts[_contractID].freight.toSlice()).toSlice();\n\n        template.split(\"<deliveryDate>\".toSlice(), part);\n        export = export.concat(part).toSlice();\n        export = export.concat(contracts[_contractID].deliveryDate.toSlice()).toSlice();\n\n        template.split(\"<returnPolicy>\".toSlice(), part);\n        export = export.concat(part).toSlice();\n        export = export.concat(contracts[_contractID].returnPolicy.toSlice()).toSlice();\n\n        template.split(\"<insurance>\".toSlice(), part);\n        export = export.concat(part).toSlice();\n        export = export.concat(contracts[_contractID].insurance.toSlice()).toSlice();\n\n        return export.toString();\n    }\n\n    function quantify(uint _contractID, uint _quantity) external onlyBuyer(_contractID) onlyInState(_contractID, State.Empty) {\n        DigitalContract storage digitalContract = contracts[_contractID];\n\n        digitalContract.quantity = _quantity;\n        digitalContract.state = State.Request;\n\n        // Raise event\n        OfferRequested(_contractID);\n    }\n\n    function propose(\n    uint _contractID,\n    uint _unitPrice,\n    string _deliveryDate,\n    string _returnPolicy,\n    uint _deposit,\n    string _freight,\n    string _insurance\n    ) external onlySeller(_contractID) onlyInState(_contractID, State.Request) {\n        DigitalContract storage digitalContract = contracts[_contractID];\n\n        digitalContract.unitPrice = _unitPrice;\n        digitalContract.deliveryDate = _deliveryDate;\n        digitalContract.returnPolicy = _returnPolicy;\n        digitalContract.deposit = _deposit;\n        digitalContract.freight = _freight;\n        digitalContract.insurance = _insurance;\n\n        digitalContract.state = State.Proposal;\n\n        // Raise event\n        OfferArrived(_contractID);\n    }\n\n    function commentDecline(\n    uint _contractID,\n    string _comment\n    ) external onlyBuyer(_contractID) onlyInState(_contractID, State.Proposal) {\n        DigitalContract storage digitalContract = contracts[_contractID];\n\n        digitalContract.comment = _comment;\n        digitalContract.state = State.Fail;\n\n        // Raise event\n        ProposalDeclined(_contractID);\n    }\n\n    function sign(uint _contractID) external onlyBuyer(_contractID) onlyInState(_contractID, State.Proposal) {\n        DigitalContract storage digitalContract = contracts[_contractID];\n\n        digitalContract.state = State.Agreement;\n\n        // Raise event\n        ProposalSigned(_contractID);\n    }\n\n    function initiateSale(uint _contractID) external onlySeller(_contractID) onlyInState(_contractID, State.Agreement) {\n        DigitalContract storage digitalContract = contracts[_contractID];\n\n        digitalContract.state = State.Initiated;\n\n        // Raise event\n        SaleInitiated(_contractID);\n    }\n\n    function withdrawOffer(uint _contractID) external onlySeller(_contractID) onlyInState(_contractID, State.Fail) {\n        // DigitalContract storage digitalContract =  contracts[_contractID];\n\n        // TODO: implement\n\n        // Raise event\n        OfferWithdrawed(_contractID);\n    }\n\n    // Contract enfillment events (Possible issue with events sent to all subscribers)\n\n    event OfferRequested(uint _contractId);\n\n    event OfferArrived(uint _contractId);\n\n    event ProposalSigned(uint _contractId);\n\n    event ProposalDeclined(uint _contractId);\n\n    event SaleInitiated(uint _contractId);\n\n    event OfferWithdrawed(uint _contractId);\n\n    /* Source: https://ethereum.stackexchange.com/a/8447 */\n\n    function toAsciiString(address x) internal pure returns (string) {\n        bytes memory s = new bytes(40);\n        for (uint i = 0; i < 20; i++) {\n            byte b = byte(uint8(uint(x) / (2 ** (8 * (19 - i)))));\n            byte hi = byte(uint8(b) / 16);\n            byte lo = byte(uint8(b) - 16 * uint8(hi));\n            s[2 * i] = char(hi);\n            s[2 * i + 1] = char(lo);\n        }\n        return string(s);\n    }\n\n    function char(byte b) internal pure returns (byte c) {\n        if (b < 10) return byte(uint8(b) + 0x30);\n        else return byte(uint8(b) + 0x57);\n    }\n\n    /* Source: https://ethereum.stackexchange.com/a/10929 */\n\n    function uintToString(uint v) internal pure returns (string str) {\n        uint maxlength = 100;\n        bytes memory reversed = new bytes(maxlength);\n        uint i = 0;\n        while (v != 0) {\n            uint remainder = v % 10;\n            v = v / 10;\n            reversed[i++] = byte(48 + remainder);\n        }\n        bytes memory s = new bytes(i);\n        for (uint j = 0; j < i; j++) {\n            s[j] = reversed[i - 1 - j];\n        }\n        str = string(s);\n    }\n}",
  "sourcePath": "/home/kemenes/school/szakdoga/thesis-project/contracts/SaleContract.sol",
  "compiler": {
    "name": "solc",
    "version": "0.4.18+commit.9cf6e910.Emscripten.clang"
  },
  "schemaVersion": "1.0.1",
  "updatedAt": "2018-04-12T12:18:03.392Z"
}